S02700004F6E2064656D616E642054726166666963206C6967687420636F6E74726F6C2E737265637F
S11300000C942A000C9404010C943C000C943C00C5
S11300100C943C000C943C000C943C000C943C006C
S11300200C943C000C943C000C943C000C943C005C
S11300300C943C000C943C000C943C000C943C004C
S11300400C943C000C943C000C943C000C943C003C
S11300500C943C0011241FBECFE5D8E0DEBFCDBF19
S113006020E0A0E6B0E001C01D92A736B207E1F798
S11300700E9429010C9409030C94000062E081E4BD
S11300800E941A0161E081E40E941A0160E081E4A7
S11300900E941A0162E082E40E941A0161E082E493
S11300A00E941A0160E082E40E941A010E946E021A
S11300B081E085BF82E085BF789480E48BBF08959A
S11300C0809161008130C9F028F08230F9F08330EA
S11300D061F133C062E082E40E941E0183E08093F8
S11300E0620060E081E40E941E0185E00E947902C2
S11300F060E081E40E94220120C082E080936200DB
S113010045E061E081E40E94980217C081E0809399
S1130110620062E081E40E941E0185E00E9479028F
S113012062E081E40E94220108C082E080936200C0
S113013045E061E081E40E9498028091610083308F
S113014020F48F5F809361000895109261000895F8
S11301500F9362E081E40E94220105E021E042E481
S113016061E081E40E94CA02109261001092600072
S11301700F9108950F93FC0180818130A1F462E016
S113018082E40E94220162E081E40E941E0160E098
S113019082E40E941E0185E00E94790260E082E40C
S11301A00E94220121C082508230F0F462E082E495
S11301B00E94220160E081E40E94220105E021E026
S11301C042E461E081E40E94CA0262E081E40E94A8
S11301D01E0160E082E40E941E0185E00E94790213
S11301E060E082E40E9422010E94A8000F91089519
S11301F080916000813029F482E690E00E94BA0088
S113020008950E94600008951F920F920FB60F92F6
S113021011248F9380916000811104C081E0809348
S1130220600002C0109260008F910F900FBE0F907B
S11302301F90189541E00E942E01089540E00E940D
S1130240B001089541E00E94B00108950E94330274
S113025008950E943E000E94F800FDCF4130D9F578
S11302608234A1F018F4813431F031C08334C9F000
S1130270843411F12CC02AB381E090E002C0880FCD
S1130280991F6A95E2F7822B8ABB089527B381E010
S113029090E002C0880F991F6A95E2F7822B87BB12
S11302A0089524B381E090E002C0880F991F6A95F5
S11302B0E2F7822B84BB089521B381E090E002C071
S11302C0880F991F6A95E2F7822B81BB089581E01C
S11302D080936300089541113FC08234A9F018F45B
S11302E0813431F035C08334D9F0843429F130C0FD
S11302F02AB381E090E002C0880F991F6A95E2F763
S1130300809582238ABB089527B381E090E002C0E0
S1130310880F991F6A95E2F78095822387BB089519
S113032024B381E090E002C0880F991F6A95E2F738
S11303308095822384BB089521B381E090E002C0BC
S1130340880F991F6A95E2F78095822381BB0895EF
S113035081E080936300089581E0809363000895B1
S113036041113BC08234A1F018F4813431F031C022
S11303708334C9F0843411F12CC02BB381E090E0B4
S113038002C0880F991F6A95E2F7822B8BBB0895F0
S113039028B381E090E002C0880F991F6A95E2F7C4
S11303A0822B88BB089525B381E090E002C0880FBA
S11303B0991F6A95E2F7822B85BB089522B381E0E9
S11303C090E002C0880F991F6A95E2F7822B82BBE6
S11303D0089581E0809364000895413009F03FC09E
S11303E08234A9F018F4813431F035C08334D9F063
S11303F0843429F130C02BB381E090E002C0880F2F
S1130400991F6A95E2F7809582238BBB089528B3E0
S113041081E090E002C0880F991F6A95E2F7809509
S1130420822388BB089525B381E090E002C0880F41
S1130430991F6A95E2F78095822385BB089522B3BC
S113044081E090E002C0880F991F6A95E2F78095D9
S1130450822382BB089581E080936400089581E043
S11304608093640008958234A1F018F4813431F04B
S113047031C08334C9F0843411F12CC02BB381E032
S113048090E002C0880F991F6A95E2F782278BBB20
S1130490089528B381E090E002C0880F991F6A95FF
S11304A0E2F7822788BB089525B381E090E002C07B
S11304B0880F991F6A95E2F7822785BB089522B3B6
S11304C081E090E002C0880F991F6A95E2F78227C5
S11304D082BB089581E080936500089513BE83B7BD
S11304E0811103C010926300089581E0809363003A
S11304F0089596EF92BF880F880F93B7916093BFCA
S113050093B7946093BF20E007C008B600FEFDCF08
S113051098B7916098BF2F5F2817B8F3281303C0CA
S11305201092640003C081E08093640013BE0895B8
S11305300F931F93CF93DF93182F062F86EF82BF5D
S1130540D42FDD0FDD0F83B7816083BF83B7846051
S113055083BFC0E00BC008B600FEFDCF88B7816042
S113056088BFCF5F602F812F0E942601CD1798F39B
S1130570CD1303C01092650003C081E08093650031
S113058013BE602F812F0E942201DF91CF911F9112
S11305900F910895EF92FF920F931F93CF93DF93E0
S11305A0F82EE62ED42F122F86EF82BF000F000FF5
S11305B083B7816083BF83B7846083BFC0E00FC00B
S11305C008B600FEFDCF88B7816088BFCF5F6E2D6F
S11305D08F2D0E942601612F8D2F0E942601C017A6
S11305E078F3C01303C01092660003C081E08093C7
S11305F0660013BE6E2D8F2D0E942201612F8D2F58
S11306000E942201DF91CF911F910F91FF90EF90F3
S10906100895F894FFCFE9
S9030000FC
