S00C0000746573742E7372656358
S11300000C942A000C9488000C943C000C943C0042
S11300100C943C000C943C000C943C000C943C006C
S11300200C943C000C943C000C943C000C943C005C
S11300300C943C000C943C000C943C000C943C004C
S11300400C943C000C943C000C943C000C943C003C
S11300500C943C0011241FBECFE5D8E0DEBFCDBF19
S113006020E0A0E6B0E001C01D92A136B207E1F79E
S11300700E944A000C948A010C94000041E00E9402
S11300809E00089540E00E941401089541E00E94FA
S11300901401089560E081E40E943E0061E081E47F
S11300A00E943E0062E081E40E943E00789485B79D
S11300B0816085BF85B7826085BF8BB780648BBF45
S11300C01092600080916000813099F028F08230B5
S11300D0A9F08330C1F0F6CF60E081E40E944600CD
S11300E061E081E40E94460062E081E40E944600EF
S11300F0E9CF60E081E40E944200E4CF61E081E462
S11301000E944200DFCF62E081E40E944200DACF25
S11301101F920F920FB60F9211248F93809160005B
S1130120833020F48F5F8093600002C010926000DF
S11301308F910F900FBE0F901F9018954130B9F515
S11301408234A1F018F4813431F008958334C9F075
S1130150843411F108952AB381E090E002C0880F3D
S1130160991F6A95E2F7822B8ABB089527B381E031
S113017090E002C0880F991F6A95E2F7822B87BB33
S1130180089524B381E090E002C0880F991F6A9516
S1130190E2F7822B84BB089521B381E090E002C092
S11301A0880F991F6A95E2F7822B81BB089541114C
S11301B03AC08234A9F018F4813431F008958334BC
S11301C0D9F0843429F108952AB381E090E002C083
S11301D0880F991F6A95E2F7809582238ABB089558
S11301E027B381E090E002C0880F991F6A95E2F777
S11301F08095822387BB089524B381E090E002C0F8
S1130200880F991F6A95E2F78095822384BB08952D
S113021021B381E090E002C0880F991F6A95E2F74C
S11302208095822381BB0895411137C08234A1F0A7
S113023018F4813431F008958334C9F0843411F111
S113024008952BB381E090E002C0880F991F6A954E
S1130250E2F7822B8BBB089528B381E090E002C0C3
S1130260880F991F6A95E2F7822B88BB089525B3FE
S113027081E090E002C0880F991F6A95E2F7822B13
S113028085BB089522B381E090E002C0880F991FD6
S11302906A95E2F7822B82BB08954130D1F582340E
S11302A0A9F018F4813431F008958334D9F08434FA
S11302B029F108952BB381E090E002C0880F991FC3
S11302C06A95E2F7809582238BBB089528B381E079
S11302D090E002C0880F991F6A95E2F78095822307
S11302E088BB089525B381E090E002C0880F991F70
S11302F06A95E2F78095822385BB089522B381E055
S113030090E002C0880F991F6A95E2F780958223D6
S10B031082BB0895F894FFCFAD
S9030000FC
